:1000000019C034C033C032C031C030C02FC02EC080
:100010002DC02CC02BC02AC029C028C028C026C093
:1000200025C024C023C022C021C020C01FC01EC0C4
:100030001DC01CC011241FBECFEFCDBFDFE3DEBF4C
:100040008091400080934000811105C098ED21E02F
:1000500094BF209341008CBB2EE3A0E0BEE301C01F
:100060001D92AA30B207E1F731D083C0C9CF8F9378
:1000700081E080938D0A8FB78F93EF93FF93E0E039
:10008000FEE39F9368948FEF0DC0E894848195817F
:10009000805D9C4F84839583885E934080F0848349
:1000A00095838FEF9081981B919390819F4F9193AF
:1000B00090819F4F919390819F4F919336F39F91A1
:1000C000FF91EF918F918FBF8F91189588ED90E000
:1000D00084BF90936100E0E0F6E083E582838DE0E9
:1000E000858380E2838381E0808310920202809383
:1000F000030A9EEF9093260A9093270A9BE0909321
:10010000000AE0E8FAE02DEF31E026A737A71182D8
:1001100090E89283848781E1808378948091400481
:1001200082608093400422E080914404822780937F
:1001300044048FB7F8944091043E5091053E60917D
:10014000063E7091073E8FBF3FB7F8948091043E02
:100150009091053EA091063EB091073E3FBF841BA3
:10016000950BA60BB70B8A3F9105A105B10560F36E
:06017000DBCFF894FFCF85
:00000001FF
